{
  "contractName": "CriminalRecord",
  "abi": [
    {
      "inputs": [],
      "stateMutability": "nonpayable",
      "type": "constructor"
    },
    {
      "inputs": [],
      "name": "crimeCount",
      "outputs": [
        {
          "internalType": "uint256",
          "name": "",
          "type": "uint256"
        }
      ],
      "stateMutability": "view",
      "type": "function",
      "constant": true
    },
    {
      "inputs": [
        {
          "internalType": "uint256",
          "name": "",
          "type": "uint256"
        }
      ],
      "name": "crimes",
      "outputs": [
        {
          "internalType": "string",
          "name": "name",
          "type": "string"
        },
        {
          "internalType": "string",
          "name": "crime",
          "type": "string"
        },
        {
          "internalType": "uint256",
          "name": "age",
          "type": "uint256"
        },
        {
          "internalType": "string",
          "name": "status",
          "type": "string"
        },
        {
          "internalType": "string",
          "name": "image",
          "type": "string"
        }
      ],
      "stateMutability": "view",
      "type": "function",
      "constant": true
    },
    {
      "inputs": [
        {
          "internalType": "string",
          "name": "name",
          "type": "string"
        },
        {
          "internalType": "string",
          "name": "crime",
          "type": "string"
        },
        {
          "internalType": "uint256",
          "name": "age",
          "type": "uint256"
        },
        {
          "internalType": "string",
          "name": "status",
          "type": "string"
        },
        {
          "internalType": "string",
          "name": "image",
          "type": "string"
        }
      ],
      "name": "addCrime",
      "outputs": [],
      "stateMutability": "nonpayable",
      "type": "function"
    }
  ],
  "bytecode": "0x608060405234801561000f575f80fd5b505f600181905550610ace806100245f395ff3fe608060405234801561000f575f80fd5b506004361061003f575f3560e01c80630cdefa3014610043578063569d1dd1146100775780636b95e58314610095575b5f80fd5b61005d600480360381019061005891906103fe565b6100b1565b60405161006e9594939291906104c2565b60405180910390f35b61007f6102fa565b60405161008c919061052f565b60405180910390f35b6100af60048036038101906100aa9190610674565b610300565b005b5f602052805f5260405f205f91509050805f0180546100cf90610788565b80601f01602080910402602001604051908101604052809291908181526020018280546100fb90610788565b80156101465780601f1061011d57610100808354040283529160200191610146565b820191905f5260205f20905b81548152906001019060200180831161012957829003601f168201915b50505050509080600101805461015b90610788565b80601f016020809104026020016040519081016040528092919081815260200182805461018790610788565b80156101d25780601f106101a9576101008083540402835291602001916101d2565b820191905f5260205f20905b8154815290600101906020018083116101b557829003601f168201915b5050505050908060020154908060030180546101ed90610788565b80601f016020809104026020016040519081016040528092919081815260200182805461021990610788565b80156102645780601f1061023b57610100808354040283529160200191610264565b820191905f5260205f20905b81548152906001019060200180831161024757829003601f168201915b50505050509080600401805461027990610788565b80601f01602080910402602001604051908101604052809291908181526020018280546102a590610788565b80156102f05780601f106102c7576101008083540402835291602001916102f0565b820191905f5260205f20905b8154815290600101906020018083116102d357829003601f168201915b5050505050905085565b60015481565b60015f815480929190610312906107e5565b91905055506040518060a00160405280868152602001858152602001848152602001838152602001828152505f8060015481526020019081526020015f205f820151815f01908161036391906109c9565b50602082015181600101908161037991906109c9565b5060408201518160020155606082015181600301908161039991906109c9565b5060808201518160040190816103af91906109c9565b509050505050505050565b5f604051905090565b5f80fd5b5f80fd5b5f819050919050565b6103dd816103cb565b81146103e7575f80fd5b50565b5f813590506103f8816103d4565b92915050565b5f60208284031215610413576104126103c3565b5b5f610420848285016103ea565b91505092915050565b5f81519050919050565b5f82825260208201905092915050565b5f5b83811015610460578082015181840152602081019050610445565b5f8484015250505050565b5f601f19601f8301169050919050565b5f61048582610429565b61048f8185610433565b935061049f818560208601610443565b6104a88161046b565b840191505092915050565b6104bc816103cb565b82525050565b5f60a0820190508181035f8301526104da818861047b565b905081810360208301526104ee818761047b565b90506104fd60408301866104b3565b818103606083015261050f818561047b565b90508181036080830152610523818461047b565b90509695505050505050565b5f6020820190506105425f8301846104b3565b92915050565b5f80fd5b5f80fd5b7f4e487b71000000000000000000000000000000000000000000000000000000005f52604160045260245ffd5b6105868261046b565b810181811067ffffffffffffffff821117156105a5576105a4610550565b5b80604052505050565b5f6105b76103ba565b90506105c3828261057d565b919050565b5f67ffffffffffffffff8211156105e2576105e1610550565b5b6105eb8261046b565b9050602081019050919050565b828183375f83830152505050565b5f610618610613846105c8565b6105ae565b9050828152602081018484840111156106345761063361054c565b5b61063f8482856105f8565b509392505050565b5f82601f83011261065b5761065a610548565b5b813561066b848260208601610606565b91505092915050565b5f805f805f60a0868803121561068d5761068c6103c3565b5b5f86013567ffffffffffffffff8111156106aa576106a96103c7565b5b6106b688828901610647565b955050602086013567ffffffffffffffff8111156106d7576106d66103c7565b5b6106e388828901610647565b94505060406106f4888289016103ea565b935050606086013567ffffffffffffffff811115610715576107146103c7565b5b61072188828901610647565b925050608086013567ffffffffffffffff811115610742576107416103c7565b5b61074e88828901610647565b9150509295509295909350565b7f4e487b71000000000000000000000000000000000000000000000000000000005f52602260045260245ffd5b5f600282049050600182168061079f57607f821691505b6020821081036107b2576107b161075b565b5b50919050565b7f4e487b71000000000000000000000000000000000000000000000000000000005f52601160045260245ffd5b5f6107ef826103cb565b91507fffffffffffffffffffffffffffffffffffffffffffffffffffffffffffffffff8203610821576108206107b8565b5b600182019050919050565b5f819050815f5260205f209050919050565b5f6020601f8301049050919050565b5f82821b905092915050565b5f600883026108887fffffffffffffffffffffffffffffffffffffffffffffffffffffffffffffffff8261084d565b610892868361084d565b95508019841693508086168417925050509392505050565b5f819050919050565b5f6108cd6108c86108c3846103cb565b6108aa565b6103cb565b9050919050565b5f819050919050565b6108e6836108b3565b6108fa6108f2826108d4565b848454610859565b825550505050565b5f90565b61090e610902565b6109198184846108dd565b505050565b5b8181101561093c576109315f82610906565b60018101905061091f565b5050565b601f821115610981576109528161082c565b61095b8461083e565b8101602085101561096a578190505b61097e6109768561083e565b83018261091e565b50505b505050565b5f82821c905092915050565b5f6109a15f1984600802610986565b1980831691505092915050565b5f6109b98383610992565b9150826002028217905092915050565b6109d282610429565b67ffffffffffffffff8111156109eb576109ea610550565b5b6109f58254610788565b610a00828285610940565b5f60209050601f831160018114610a31575f8415610a1f578287015190505b610a2985826109ae565b865550610a90565b601f198416610a3f8661082c565b5f5b82811015610a6657848901518255600182019150602085019450602081019050610a41565b86831015610a835784890151610a7f601f891682610992565b8355505b6001600288020188555050505b50505050505056fea26469706673582212207739e30656951928b195f3938150dbb4c4abbbb43ee29ccaa7ae5b89d8c2c10164736f6c63430008150033",
  "immutableReferences": {},
  "source": "// contracts/CriminalRecord.sol\r\n// SPDX-License-Identifier: MIT\r\npragma solidity ^0.8.0;\r\n\r\ncontract CriminalRecord {\r\n    struct Crime {\r\n        string name;\r\n        string crime;\r\n        uint256 age;\r\n        string status;\r\n        string image;\r\n    }\r\n\r\n    mapping(uint256 => Crime) public crimes;\r\n    uint256 public crimeCount;\r\n\r\n    constructor() {\r\n        // You can initialize any default values here\r\n        // For example, set crimeCount to 0\r\n        crimeCount = 0;\r\n    }\r\n\r\n    function addCrime(string memory name, string memory crime, uint256 age, string memory status, string memory image) public {\r\n        crimeCount++;\r\n        crimes[crimeCount] = Crime(name, crime, age, status, image);\r\n    }\r\n}\r\n",
  "sourcePath": "C:\\Users\\Hp\\Desktop\\CrimeSecure - with local blockchain\\CrimeSecure - with local blockchain\\backend\\contracts\\criminalRecord.sol",
  "compiler": {
    "name": "solc",
    "version": "0.8.21+commit.d9974bed.Emscripten.clang"
  },
  "schemaVersion": "3.4.16",
  "updatedAt": "2023-11-27T18:31:07.166Z",
  "networkType": "ethereum",
  "devdoc": {
    "kind": "dev",
    "methods": {},
    "version": 1
  },
  "userdoc": {
    "kind": "user",
    "methods": {},
    "version": 1
  }
}